:100000000C9435000C9430020C9409020C945D00A1
:100010000C945D000C945D000C94AF020C945D0098
:100020000C945D000C945D000C945D000C945D00DC
:100030000C945D000C945D000C945D000C945D00CC
:100040000C94BF010C945D000C947D020C9457023B
:100050000C945D000C945D000C945D000C945D00AC
:100060000C945D000C945D00B90211241FBECFEF0B
:10007000D8E0DEBFCDBF22E0A8E4B1E001C01D9210
:10008000A033B207E1F711E0A0E0B1E0ECEFF7E058
:1000900002C005900D92A834B107D9F710E0C5E36E
:1000A000D0E004C02197FE010E94F103C433D107C0
:1000B000C9F70E940B030C94FC030C9400000895F4
:1000C000CF92DF92EF92FF920F931F93CF93DF9324
:1000D0006C017A018B01C0E0D0E0CE15DF0589F01C
:1000E000D8016D918D01D601ED91FC910190F081C7
:1000F000E02DC6010995892B11F47E0102C02196DD
:10010000ECCFC701DF91CF911F910F91FF90EF903E
:10011000DF90CF900895089580E090E00895FC016D
:10012000538D448D252F30E0842F90E0821B930B5C
:10013000541710F0CF96089501970895FC01918D02
:10014000828D981761F0828DDF01A80FB11D5D9639
:100150008C91928D9F5F9F73928F90E008958FEFA7
:100160009FEF0895FC01918D828D981731F0828D5B
:10017000E80FF11D858D90E008958FEF9FEF0895B2
:10018000FC01918D228D892F90E0805C9F4F821B16
:1001900091098F739927089581E591E00E94C0002D
:1001A00021E0892B09F420E0822F0895FC01848D41
:1001B000DF01A80FB11DA35ABF4F2C91848D90E091
:1001C00001968F739927848FA689B7892C93A0896C
:1001D000B1898C9180648C93938D848D981306C023
:1001E0000288F389E02D80818F7D80830895EF92CE
:1001F000FF920F931F93CF93DF93EC0181E0888FE1
:100200009B8D8C8D981305C0E889F989808185FDC7
:1002100024C0F62E0B8D10E00F5F1F4F0F731127B8
:10022000E02E8C8DE8120CC00FB607FCFACFE889DF
:10023000F989808185FFF5CFCE010E94D600F1CFEC
:100240008B8DFE01E80FF11DE35AFF4FF0820B8FFB
:10025000EA89FB898081806207C0EE89FF8960831B
:10026000E889F98980818064808381E090E0DF9172
:10027000CF911F910F91FF90EF900895CF93DF934F
:10028000EC01888D8823C9F0EA89FB89808185FD8E
:1002900005C0A889B9898C9186FD0FC00FB607FCEF
:1002A000F5CF808185FFF2CFA889B9898C9185FF30
:1002B000EDCFCE010E94D600E7CFDF91CF91089518
:1002C00080E090E0892B29F00E94CC0081110C94F1
:1002D00000000895009769F0FC0101900020E9F703
:1002E0003197AF01481B590BBC0181E591E00C949B
:1002F000600080E090E008958F929F92AF92BF924D
:100300000F931F93CF93DF93CDB7DEB7A1970FB6AF
:10031000F894DEBF0FBECDBF19A2423008F44AE008
:100320008E010F5D1F4F842E912CA12CB12CA501A5
:1003300094010E94CF03E62FB901CA0101501109AF
:10034000EA3014F4E05D01C0E95CD801EC93232BA2
:10035000242B252B61F7C8010E946A01A1960FB6D4
:10036000F894DEBF0FBECDBFDF91CF911F910F91EB
:10037000BF90AF909F908F9008950E94F7031F92B7
:100380000F920FB60F9211242F933F938F939F9349
:10039000AF93BF9380914D0190914E01A0914F0179
:1003A000B091500130914C0123E0230F2D3720F400
:1003B0000196A11DB11D05C026E8230F0296A11DBF
:1003C000B11D20934C0180934D0190934E01A09359
:1003D0004F01B09350018091480190914901A09143
:1003E0004A01B0914B010196A11DB11D80934801B6
:1003F00090934901A0934A01B0934B01BF91AF91F3
:100400009F918F913F912F910F900FBE0F901F9052
:1004100018951F920F920FB60F9211242F933F93AE
:100420004F935F936F937F938F939F93AF93BF93FC
:10043000EF93FF93E0910501F09106010995FF917B
:10044000EF91BF91AF919F918F917F916F915F914C
:100450004F913F912F910F900FBE0F901F901895C5
:100460001F920F920FB60F9211242F933F934F9329
:100470005F936F937F938F939F93AF93BF93EF930C
:10048000FF93E0910301F09104010995FF91EF9131
:10049000BF91AF919F918F917F916F915F914F919C
:1004A0003F912F910F900FBE0F901F9018951F92A4
:1004B0000F920FB60F9211242F933F934F935F9398
:1004C0006F937F938F939F93AF93BF93EF93FF931C
:1004D00081E591E00E94D600FF91EF91BF91AF912D
:1004E0009F918F917F916F915F914F913F912F914C
:1004F0000F900FBE0F901F9018951F920F920FB67E
:100500000F9211242F938F939F93EF93FF93E0917A
:100510006101F09162018081E0916701F0916801D1
:1005200082FD12C0908180916A018F5F8F7320914C
:100530006B01821751F0E0916A01F0E0EF5AFE4F33
:10054000958F80936A0101C08081FF91EF919F9107
:100550008F912F910F900FBE0F901F9018951F92A3
:100560000F920FB60F9211240F900FBE0F901F9095
:100570001895CF93DF93E1E5F1E01382128288EEC4
:1005800093E0A0E0B0E084839583A683B7838BE0FB
:1005900091E09183808385EC90E09587848784EC5B
:1005A00090E09787868780EC90E0918B808B81EC40
:1005B00090E0938B828B82EC90E0958B848B86EC21
:1005C00090E0978B868B118E128E138E148EEFE037
:1005D000F2E01082118212821482158216829AE150
:1005E000A6E1B2E0ED01892F19928A95E9F782E040
:1005F0008383EEEEF1E01082118212821482158262
:100600001682A5EFB1E0ED0119929A95E9F783837F
:10061000DF91CF910895789484B5826084BD84B5CC
:10062000816084BD85B5826085BD85B5816085BDED
:1006300080916E00816080936E00109281008091A5
:10064000810082608093810080918100816080932D
:100650008100809180008160809380008091B10052
:1006600084608093B1008091B00081608093B0007D
:1006700080917A00846080937A0080917A00826011
:1006800080937A0080917A00816080937A008091D3
:100690007A00806880937A001092C100E091610135
:1006A000F091620182E08083E0915D01F0915E0152
:1006B0001082E0915F01F091600180E180831092EF
:1006C0006901E0916501F091660186E08083E09127
:1006D0006301F0916401808180618083E091630116
:1006E000F0916401808188608083E0916301F091E2
:1006F0006401808180688083E0916301F0916401EE
:1007000080818F7D808389E191E00E946A014AE0C7
:100710006FEF70E080E090E00E947C0187E291E062
:100720000E946A018AE291E00E946A0187E291E0F8
:100730000E946A016AE280E090E00E94BD0389E3C2
:1007400091E00E946A0180E090E00E94B503682F6A
:1007500070E080E090E04AE00E947C0187E291E056
:100760000E946A010E946001FDCFF999FECF92BDFF
:1007700081BDF89A992780B50895262FF999FECF63
:1007800092BD81BDF89A019700B4021639F01FBAE4
:1007900020BD0FB6F894FA9AF99A0FBE0895A1E217
:1007A0001A2EAA1BBB1BFD010DC0AA1FBB1FEE1FEB
:1007B000FF1FA217B307E407F50720F0A21BB30B36
:1007C000E40BF50B661F771F881F991F1A9469F7B2
:1007D00060957095809590959B01AC01BD01CF010E
:1007E0000895EE0FFF1F0590F491E02D099481E02C
:0C07F00090E0F8940C94FC03F894FFCF08
:1007FC00FFFFFF5F005F0000000000F70060008F4C
:10080C00003E01C0009E00B2004F6C64206E6F640D
:10081C00652049443A20000D0A0057726974696ECC
:10082C0067206E6577204944004E6577206E6F64B3
:08083C00652049443A20000048
:00000001FF
